:020000040800F2
:1000000000040020EF190008E1080008E3080008D8
:10001000E7080008EB080008EF08000800000000EF
:10002000000000000000000000000000F3080008CD
:10003000F508000800000000F7080008F9080008AB
:10004000C70600080F1A00080F1A00080F1A000848
:100050000F1A00080F1A00080F1A00080F1A0008DC
:100060000F1A00080F1A00080F1A00080F1A0008CC
:100070000F1A00080F1A00080F1A00080F1A0008BC
:100080000F1A00080F1A00080F1A00080F1A0008AC
:100090000F1A00080F1A00080F1A00080F1A00089C
:1000A0000F1A00080F1A00080F1A00080F1A00088C
:1000B0000F1A00080F1A00080F1A00080F1A00087C
:1000C0000F1A00080F1A00080F1A00080F1A00086C
:1000D0000F1A00080F1A00080F1A00080F1A00085C
:1000E0000F1A00080F1A00080F1A00080F1A00084C
:1000F0000F1A00080F1A00080F1A00080F1A00083C
:100100000F1A00080F1A00080F1A00080F1A00082B
:100110000F1A00080F1A00080F1A00080F1A00081B
:100120000F1A00080F1A00080F1A00080F1A00080B
:1001300000F002F800F03CF80AA090E8000C8244BD
:100140008344AAF10107DA4501D100F031F8AFF29A
:10015000090EBAE80F0013F0010F18BFFB1A43F0A5
:1001600001031847B81F0000D81F0000103A24BF31
:1001700078C878C1FAD8520724BF30C830C144BF0C
:1001800004680C607047000000230024002500264E
:10019000103A28BF78C1FBD8520728BF30C148BFEA
:1001A0000B6070471FB5AFF300801FBD10B510BDC9
:1001B00001F045FC1146FFF7F5FF00F040FB01F0B0
:1001C00063FCFFF7F3FF01F069FC0000002904DA8B
:1001D0004A4211B22D22027001E0202202706422F4
:1001E00091FBF2F23032D3B2421C104613706422FB
:1001F00091FBF2F302FB131211B20A2291FBF2F20D
:100200003032D3B2421C104613700A2291FBF2F333
:1002100002FB131211B201F13002D3B2421C10469C
:100220001370704708B54020ADF8000003208DF82A
:10023000020014208DF803006946FF4801F00AF817
:100240008020ADF8000003208DF8020014208DF806
:1002500003006946F84800F0FDFF08BD1E2001E0DC
:10026000411EC8B20028FBD1704741F2883000E03F
:10027000401E0028FCD1704700B58020EE491031A7
:1002800008604020ED49C1F8100CFFF7E7FFEA488D
:100290000830006808B9012000E0002010F0800F4D
:1002A00001D0002000BD8020E34914310860FFF731
:1002B000D5FFE248D0F8080C10F0800F01D00020E4
:1002C000F0E78020DC4914310860FFF7C7FF012008
:1002D000E8E700B54020D84914310860FFF7BEFFB9
:1002E0008020D649C1F8140CFFF7B8FF4020D2494E
:1002F00010310860FFF7B2FF8020D049C1F8100C20
:10030000FFF7ACFF00BD00B54020CB4914310860B9
:10031000FFF7A4FF8020C949C1F8140CFFF79EFF26
:100320004020C54910310860FFF798FF4020C349BD
:10033000C1F8140CFFF792FF00BD00B54020BE4984
:1003400014310860FFF78AFF8020BC49C1F8100C07
:10035000FFF784FF4020B84910310860FFF77EFFA7
:100360004020B649C1F8140CFFF778FF00BD00B576
:100370004020B14914310860FFF770FF8020AF4979
:10038000C1F8100CFFF76AFF4020AB49103108603C
:10039000FFF764FFA948D0F8080C10F0800F07D0D1
:1003A0004020A54914310860FFF758FF002000BD28
:1003B0004020A14914310860FFF750FF0120F6E703
:1003C00000B5034608221BE040209B491431086019
:1003D000FFF744FF13F0800F04D0802096491031BE
:1003E000086003E080209449143108605806030E29
:1003F000FFF734FF4020904910310860FFF72EFFCF
:100400001000A2F10101CAB2DED140208A491431A4
:10041000086000BD00B50822002380208649103105
:10042000086015E05806030E402083491431086027
:10043000FFF714FF40208149C1F8100CFFF70EFFB1
:100440007D480830006810F0800F01D043F00103B0
:100450001000A2F10101CAB2E4D140207649143162
:100460000860184600BD70B504460D461646FFF7F5
:1004700003FF08B9002070BD2046FFF7A1FFFFF77A
:1004800076FF18B9FFF725FF0020F4E72846FFF7AD
:1004900097FFFFF76CFF3046FFF792FFFFF767FF0C
:1004A000FFF717FFFFF7E1FE0120E4E770B5044610
:1004B0000D46FFF7E1FE08B9002070BD2046FFF7AA
:1004C0007FFFFFF754FF30B9FFF703FF01205C49BE
:1004D00008700020F1E72846FFF772FFFFF747FF9B
:1004E000FFF7CAFE601CC0B2FFF76AFFFFF73FFFCD
:1004F000FFF790FF0646FFF720FFFFF7EAFE3046C2
:10050000DBE710B500F0FAF94FF4803000F016FA8E
:1005100000F053FA4B49087008460078012826D1AC
:10052000002000F089FA002000F096FA4FF4806075
:1005300000F08AFA022000F0C1FF102000F0D1FF85
:100540004FF4E0114FF4803000F05BFA012000F02E
:1005500063FA00BF392000F014FA0028FAD0022014
:1005600000F05DFA00BF00F062FA0828FBD101211B
:100570000C2000F029FB0121302000F025FB012197
:10058000C02000F021FB012140F2011000F01CFB13
:1005900010BD08B501213C2000F016FB4FF400709F
:1005A000ADF8000018208DF8030003208DF802003C
:1005B0006946254800F04EFE4FF48060ADF800001B
:1005C00004208DF8030069461F4800F043FE08BD73
:1005D00000B587B001214FF4904000F0F5FA0020FB
:1005E000ADF80400ADF806004FF40070ADF8080057
:1005F0000020ADF80A0001A9144800F0E4FB4FF414
:10060000E13003900020ADF81000ADF81200ADF815
:100610001400ADF818000C20ADF8160003A90B4823
:1006200000F077FB40F22551084800F0B5FC0122AC
:1006300040F2255105480BE0000C0140000001404C
:1006400000000020060000200008014000380140A2
:1006500000F0DBFB0121994800F0CBFB07B000BDA7
:1006600008B54FF4E06000F025FD00208DF8000093
:100670008DF80100684600F022FD08BD10B501218B
:10068000C80200F0AEFA4FF4C07000F0DCFC41206C
:1006900000F0E3FC502000F0F6FC00F0FFFC00F05E
:1006A000E8FC10BD00E0401E0028FCD1704707E0C8
:1006B000002100E0491C4CF250329142FAD3401E16
:1006C0000028F5D1704710B5502000F0D6FC00F09E
:1006D000E5FC10BD10B504462146784800F0F8FB53
:1006E0000120FFF7E4FF10BD00B500226B21D020F0
:1006F000FFF7B9FE07221921D020FFF7B4FE06222A
:100700001A21D020FFF7AFFE18221B21D020FFF7BF
:10071000AAFE01221C21D020FFF7A5FE00BD1FB5B7
:100720004421D020FFF7C2FE654908704321D02044
:10073000FFF7BCFE6249487008460078497840EAF5
:10074000012000B25F4908800846B0F9000001F0BE
:100750000FFCCDE902015CA00CC8029801F0BAF9C7
:10076000CDE9000101F0B6FB00B2564908804621F0
:10077000D020FFF79BFE524988704521D020FFF71B
:1007800095FE4F49C87008468078C97840EA012034
:1007900000B24F4908800846B0F9000001F0E8FBBC
:1007A000CDE9020148A00CC8029801F093F9CDE907
:1007B000000101F08FFB00B2454908804821D0209C
:1007C000FFF774FE3E4908714721D020FFF76EFE07
:1007D0003B49487108460079497940EA012000B256
:1007E0003C4908800846B0F9000001F0C1FBCDE9A2
:1007F000020135A00CC8029801F06CF9CDE90001A6
:1008000001F068FB00B2334908801FBD70B5054692
:100810002846FFF75FFF3A20FFF75CFF002405E062
:100820002D49085DFFF756FF601CC4B2042CF7DBAE
:100830002020FFF74FFF2020FFF74CFF70BD10B5C1
:10084000FFF75FFEFFF7A5FEFFF7C2FEFFF7EAFC2A
:100850000A20FFF72CFFFFF747FF2EE0FFF75FFFAF
:100860001848B0F900101C48FFF7B0FC5820FFF7FB
:10087000CDFF1748B0F900101748FFF7A7FC592023
:10088000FFF7C4FF1348B0F900101348FFF79EFCB0
:100890005A20FFF7BBFF1148B0F900100E48FFF7D0
:1008A00095FC5420FFF7B2FF0D20FFF713FF0A203D
:1008B000FFF710FF0520FFF7FAFECFE700380140F1
:1008C000280000200C0000206666666666663040E0
:1008D0000E00002010000020070000201200002061
:1008E000704700BFFEE700BFFEE700BFFEE700BFA6
:1008F000FEE770477047704770470000DB480068AC
:1009000040F00100D949086008464068D8490840CD
:10091000D649486008460068D6490840D34908606F
:100920000846006820F4802008600846406820F4EB
:10093000FE0048604FF41F0088607047CB4909688B
:1009400021F48031C94A11601146096821F48021DF
:100950001160B0F5803F03D0B0F5802F0ED106E0D6
:10096000C249096841F48031C04A116007E0BF49BB
:10097000096841F4A021BD4A116000E000BF00BF3A
:10098000704710B501460022002300204A11012AB9
:1009900002D1B64C236806E0022A02D1B34C236A86
:1009A00001E0B24C636A01F01F02012494401C4232
:1009B00001D0012000E0002010BD70B5002400250A
:1009C000002600BF3120FFF7DCFF0646641CB4F5AB
:1009D000A06F01D0002EF5D03120FFF7D2FF08B173
:1009E000012500E00025284670BD00219F4A1168BE
:1009F00021F0F80141EAC001116070479E4908608A
:100A000070470022994B5A6822F47C1240EA010395
:100A10001A43964B5A607047974908667047002101
:100A2000924A516821F003010143516070478F4899
:100A3000406800F00C00704700218C4A516821F09A
:100A4000F0010143516070470021884A516821F448
:100A5000E0610143516070470021844A516821F4EC
:100A6000605141EAC0015160704729B17F4A527A12
:100A700002437E4B5A7206E07C4A527AC343DBB291
:100A80001A407A4B5A7270477B49D83108607047D8
:100A90000021764A516821F440410143516070477A
:100AA0000021724A20321170704A82F82010012809
:100AB00002D004280AD104E001216C4A20321170CE
:100AC00005E00521694A2032117000E000BF00BF37
:100AD00070476A49086070476449096A0143634A7C
:100AE00011627047654944390860704730B500218C
:100AF0000022002300245D4D6D6805F00C0121B13A
:100B0000042905D0082923D105E05D4D056022E0C8
:100B10005B4D05601FE0554D6D6805F47012534D37
:100B20006D6805F48033022505EB92421BB9554DE3
:100B3000554305600BE04D4D6D6815F4003F03D043
:100B4000504D5543056002E04D4D5543056002E0B0
:100B50004B4D056000BF00BF444D6D6805F0F001CE
:100B60000909494D6C5C0568E54045603F4D6D687D
:100B700005F4E061090A444D6C5C4568E540856018
:100B80003A4D6D6805F46051C90A3F4D6C5C45688B
:100B9000E540C560354D6D6805F44041890B3A4D1F
:100BA00010356C5CC568B5FBF4F5056130BD29B145
:100BB0002E4A526902432D4B5A6104E02B4A526976
:100BC00082432A4B5A61704729B1284A92690243ED
:100BD000264B9A6104E0254A92698243234B9A612D
:100BE000704729B1214AD2690243204BDA6104E0FF
:100BF0001E4AD26982431D4BDA61704729B11B4AF4
:100C0000D2680243194BDA6004E0184AD268824382
:100C1000164BDA60704729B1144A12690243134B2C
:100C20001A6104E0114A12698243104B1A6170473D
:100C300012494039086070470F49C86470470B4932
:100C4000C87170470948406A40F08070074948629F
:100C5000704701460020054A92680A4201D00120EF
:100C600000E0002070470149887270470010024080
:100C70000000FFF8FFFFF6FE0000424280044242FF
:100C800000127A0000093D001400002010B504464F
:100C9000E248844209D101218803FFF7AFFF002118
:100CA0004FF48040FFF7AAFF32E0DD48844209D1CB
:100CB00001214804FFF7AFFF00214FF40030FFF798
:100CC000AAFF25E0D748844209D101218804FFF713
:100CD000A2FF00214FF48020FFF79DFF18E0D248CB
:100CE000844209D10121C804FFF795FF00214FF488
:100CF0000020FFF790FF0BE0CC48844208D101218F
:100D00000805FFF788FF00214FF48010FFF783FFED
:100D100010BD2DE9F04786B004460D460026002799
:100D200000BF00BFB246A88900B100BFA246268A14
:100D30004CF6FF700640E88806432682A6894EF6E8
:100D4000F3100640A88829890843698908430643A7
:100D5000A681A68A4FF6FF400640A8890643A682D0
:100D600001A8FFF7C3FE5446AC48824501D1049F59
:100D700000E0039F07EBC70000EB0710296889001C
:100D8000B0FBF1F86420B8FBF0F0060130096421F3
:100D900001FB1089322101EB09106421B0FBF1F055
:100DA00000F00F000643268106B0BDE8F0874FF43F
:100DB0001651016000218180C18001810C21418197
:100DC00000218181704710B50022028A4FF2FF0393
:100DD0001A400B884C8823438C882343CC882343B8
:100DE0001A43028210BD0021018041808180C180B0
:100DF000704721B1828942F40052828104E08289E5
:100E00004DF6FF731A4082817047F0B5002400252B
:100E100000260023A1F510676A3F00D100BF0346FA
:100E2000C1F3421401F01F05012707FA05F6012C52
:100E300001D10C3304E0022C01D1103300E0143353
:100E40001AB11F6837431F6002E01F68B7431F6075
:100E5000F0BD10B51AB1838A0B43838204E0838A04
:100E6000CC43A4B22340838210BD028A4FF6F073B4
:100E70001A400282028A0A430282704782894FF234
:100E8000FF731A40828182890A438281704721B1AF
:100E9000828942F00202828104E082894FF6FD736A
:100EA0001A4082817047028A4FF6DF731A4002822D
:100EB000028A0A430282704721B1028A42F48042C8
:100EC000028204E0028A4BF6FF731A4002827047E6
:100ED000C1F308028280704701468888C0F3080089
:100EE0007047818941F0010181817047028BD2B244
:100EF0000283028B42EA012202837047028B02F4D2
:100F00007F420283028B0A430283704721B1828AA7
:100F100042F02002828204E0828A4FF6DF731A4098
:100F20008282704721B1828A42F01002828204E0FC
:100F3000828A4FF6EF731A408282704721B1828A0B
:100F400042F00802828204E0828A4FF6F7731A4068
:100F500082827047828A4FF6FB731A408282828AAD
:100F60000A438282704721B1828A42F00202828261
:100F700004E0828A4FF6FD731A408282704702466F
:100F80000020B1F5007F00D100BF13880B4201D0D3
:100F9000012000E00020704701F40072B2F5007FEC
:100FA00000D100BFCA430280704770B502460023DB
:100FB000002400250020A1F510666A3E00D100BF84
:100FC000C1F3421501F01F04012606FA04F4012DB5
:100FD00002D19689344006E0022D02D1168A3440AF
:100FE00001E0968A34400B12012606FA03F31688B4
:100FF000334014B10BB1012000E0002070BD10B5EA
:1010000000220023A1F510646A3C00D100BF0A123F
:1010100001249440A3B2DC43048010BD0038014099
:101020000044004000480040004C00400050004098
:1010300010B50121C802FFF7EEFD00214FF400605A
:10104000FFF7E9FD10BD0021174A126822F4C071B4
:101050000143164AC2F8041C70470021124A126864
:1010600022F07F0100F07F021143104AC2F8041CF5
:10107000704701200E490860704700F07F010A4A5E
:10108000121F1160704740F08001074A121F116063
:1010900070470548001D0068C0B270470020024933
:1010A000091D086070470000042C0040002000402B
:1010B000A480054232490143324A1160704770B53D
:1010C000002100230F22C4780CB32E4C246804F4B2
:1010D000E064C4F5E064210AC1F10403CA40447825
:1010E00004FA03F18478144021430901264C067860
:1010F000A155047804F01F050124AC4005786D115A
:101100004FF0E02606EB8505C5F8004109E00478BC
:1011100004F01F040125A5401C4C0678761144F804
:10112000265070BD1A4A0A400243164B1B1F1A6014
:10113000704741B1134A121D126802434FF0E02379
:10114000C3F8102D07E00F4A121D126882434FF0BA
:10115000E023C3F8102D7047042808D14FF0E02198
:10116000096941F004014FF0E022116107E04FF0FE
:10117000E021096921F004014FF0E022116170477C
:101180000000FA050CED00E000E400E080E100E082
:1011900080FFFF1F10B50446BF48844208D10121DB
:1011A0000420FFF72BFD00210420FFF727FD46E078
:1011B000BA48844208D101210820FFF71FFD002111
:1011C0000820FFF71BFD3AE0B548844208D1012111
:1011D0001020FFF713FD00211020FFF70FFD2EE078
:1011E000B048844208D101212020FFF707FD0021EB
:1011F0002020FFF703FD22E0AB48844208D1012103
:101200004020FFF7FBFC00214020FFF7F7FC16E031
:10121000A648844208D101218020FFF7EFFC00217D
:101220008020FFF7EBFC0AE0A148844207D10121AE
:101230008015FFF7E3FC0021A015FFF7DFFC10BDD0
:1012400010B501210846FFF7D9FC00210120FFF766
:10125000D5FC10BDF0B50022002300240025002697
:10126000002791F803C00CF00F0291F803C01CF0A6
:10127000100F03D091F802C04CEA0202B1F800C08E
:101280001CF0FF0F31D0066800242BE04FF0010C5A
:101290000CFA04F5B1F800C00CEA0503AB4220D10A
:1012A000A5004FF00F0C0CFA05F7BE4302FA05FC3F
:1012B0004CEA060691F803C0BCF1280F06D14FF0A6
:1012C000010C0CFA04FCC0F814C00AE091F803C049
:1012D000BCF1480F05D14FF0010C0CFA04FCC0F82A
:1012E00010C0641C082CD1D30660B1F800C0BCF15A
:1012F000FF0F34DD466800242EE004F1080C4FF0A7
:10130000010E0EFA0CF5B1F800C00CEA0503AB4271
:1013100021D1A5004FF00F0C0CFA05F7BE4302FADD
:1013200005FC4CEA060691F803C0BCF1280F05D174
:1013300004F1080C0EFA0CFEC0F814E091F803C09A
:10134000BCF1480F07D104F1080C4FF0010E0EFA62
:101350000CFEC0F810E0641C082CCED34660F0BD33
:101360004FF6FF710180022181700421C170704726
:101370000246002093680B4201D0012000E00020CB
:1013800070470146886880B2704702460020D368E3
:101390000B4201D0012000E0002070470146C868E0
:1013A00080B2704701617047416170470AB10161C5
:1013B00000E041617047C16070474FF480320A43DA
:1013C0008261816182618269826970470022394B42
:1013D0001A684FF680731A4042EA00120A43354BEE
:1013E0001A6070473449C8617047F0B50022002385
:1013F000002500242F4E7568C0F3034482B200F428
:101400004016B6F5401F08D125F07065294E766864
:1014100026F07066274F7E6012E000F48016B6F565
:10142000801F06D1032606FA04F39D4345F070653C
:1014300006E0460D360102FA06F6B54345F0706542
:1014400021B1460D360102FA06F63543194E756094
:10145000F0BD30B500228B071C0F0F2303FA04F2F6
:10146000144B08338C1053F8244094438D1043F8E8
:1014700025408C1053F824308C07240F00FA04F414
:1014800023430C4C08348D1044F8253030BD0A49F4
:10149000DC3108607047000000080140000C01408A
:1014A000001001400014014000180140001C0140E0
:1014B0000020014000000140000020420021FC4AC1
:1014C000116801F03801014311607047F84909685B
:1014D00021F00801F64A11601146096801431160C4
:1014E0007047F349096821F01001F14A1160114673
:1014F0000968014311607047EE48ED494860EE48C5
:1015000048607047EA48006940F08000E849086197
:1015100070470420E649C96801F00101012901D1A1
:1015200001200EE0E249C96811F0040F01D0022049
:1015300007E0DF49C96811F0100F01D0032000E077
:10154000042070470020FF2000E0401E0028FCD14E
:10155000704770B504460425FFF7DBFF054605E03C
:10156000FFF7F0FFFFF7D5FF0546641E012D01D1FF
:10157000002CF5D104B90525284670BD70B5044688
:10158000042540F6FF70FFF7E4FF0546042D19D14E
:10159000C748006940F00200C54908610846446137
:1015A000006940F04000086140F6FF70FFF7D1FF8E
:1015B0000546052D06D0BE48006941F6FD7108407C
:1015C000BB490861284670BD10B5042440F6FF7081
:1015D000FFF7BFFF0446042C18D1B548006940F05E
:1015E0000400B34908610846006940F04000086102
:1015F00040F6FF70FFF7ADFF0446052C06D0AC485F
:10160000006941F6FB710840A9490861204610BDF8
:1016100010B5042440F6FF70FFF79BFF0446042C2E
:101620003BD1A448A2498860A34888600846006965
:1016300040F0200008610846006940F04000086161
:1016400040F6FF70FFF785FF0446042C1CD1984834
:10165000006941F6DF710840954908610846006954
:1016600040F010000861A520944908800F20FFF782
:1016700070FF0446052C10D08D48006941F6EF71CB
:1016800008408B49086108E0052C06D088480069AD
:1016900041F6EF71084086490861204610BD2DE9EA
:1016A000F04104460D46042600270F20FFF751FFA6
:1016B0000646042E26D17E48006940F001007C4990
:1016C000086125800F20FFF744FF0646042E10D145
:1016D000A71C280C38800F20FFF73BFF0646052E7D
:1016E00010D07348006941F6FE71084070490861E6
:1016F00008E0052E06D06E48006941F6FE710840EC
:101700006B4908613046BDE8F08170B504460D466E
:1017100004260F20FFF71DFF0646042E13D1644850
:10172000006940F001006249086125800F20FFF741
:1017300010FF0646052E06D05D48006941F6FE7191
:1017400008405B490861304670BD70B504460D46DF
:1017500004260F20FFF7FDFE0646042E17D155483C
:1017600053498860544888600846006940F010007A
:10177000086125800F20FFF7ECFE0646052E06D0F7
:101780004B48006941F6EF7108404949086130460D
:1017900070BD2DE9F04704464FF6FF752E462F46E3
:1017A000A8464FF00409E443E5B2C4F30726C4F3A6
:1017B00007474FEA14680F20FFF7CBFE8146B9F1C7
:1017C000040F41D13B483A4988603B48886008464D
:1017D000006940F010000861FF2D06D0374808303E
:1017E00005800F20FFF7B5FE8146B9F1040F08D13F
:1017F000FF2E06D031480A3006800F20FFF7A9FEE1
:101800008146B9F1040F08D1FF2F06D02B480C30C8
:1018100007800F20FFF79DFE8146B9F1040F09D123
:10182000B8F1FF0F06D02648A0F80E880F20FFF76A
:1018300090FE8146B9F1050F06D01D48006941F6BA
:10184000EF7108401A4908614846BDE8F08770B555
:101850000446042540F6FF70FFF77BFE0546042D85
:101860004BD11448124988601348886008460069C3
:1018700040F0200008610846006940F0400008611F
:1018800040F6FF70FFF765FE0546042D2CD1084891
:10189000006941F6DF7108400549086108460069A2
:1018A00040F0100008616CB10020044908800CE091
:1018B0000020024023016745AB89EFCD00F8FF1FF0
:1018C00000F0FF1FA5204549088040F6FF70FFF794
:1018D00040FE0546052D10D04148006941F6EF71E4
:1018E00008403F49086108E0052D06D03C480069E2
:1018F00041F6DF7108403A490861284670BD2DE97C
:10190000F04104460D46164604273648344988609F
:10191000354888600F20FFF71CFE0746042F19D1B9
:101920002F48006940F010002D49086146F0F8008A
:10193000284320432949891C08800F20FFF709FE0E
:101940000746052F06D02648006941F6EF7108408A
:10195000234908613846BDE8F0812148C069800804
:1019600070471F48006A704700201D49C96911F07F
:10197000020F01D0012000E000207047002018492C
:10198000096811F0200F01D0012000E0002070470D
:1019900029B1134A12690243114B1A6104E0104A3B
:1019A000126982430E4B1A617047014600200129DB
:1019B00008D10B4AD26912F0010F01D0012008E0D2
:1019C000002006E0064AD2680A4201D0012000E069
:1019D000002070470249C8607047000000F8FF1FF0
:1019E0000020024023016745AB89EFCD70470B48CB
:1019F00080470B4981F308880A480047FEE7FEE765
:101A0000FEE7FEE7FEE7FEE7FEE7FEE7FEE7FEE7AE
:101A100005480649064A074B70470000ED190008C3
:101A20009806002031010008980000209806002048
:101A30009802002098020020704770477047754652
:101A400000F028F8AE4605006946534620F007002E
:101A5000854618B020B5FFF7DBFFBDE820404FF00A
:101A600000064FF000074FF000084FF0000B21F088
:101A70000701AC46ACE8C009ACE8C009ACE8C00955
:101A8000ACE8C0098D4670470446AFF3008020469D
:101A9000FEF797FB004870473400002003494FF0E1
:101AA0001800ABBE704700000900000026000200CD
:101AB0007047000002494FF0000000F0E5BA000056
:101AC0000000F87F02494FF0000000F0DDBA00008E
:101AD0000000F87F70B5DFF8ECC33CEA111418BFC2
:101AE0003CEA131400F09B8081EA03050CEA111410
:101AF00044EAD5741CEA131518BF11EA0C1F00F054
:101B000074804FEAC1214FEAC32341EA505143EAAE
:101B10005253A4EB050404F17F7441F0004143F0FB
:101B200000434FEAC0204FEAC22200F0A9F8460560
:101B30004FEAD02003EB244340EA41504FEAD12141
:101B400001EB035282EAC47116D05FEA460E38BF39
:101B50004FF0404610D314BF00234FF0004350F124
:101B6000000041F1000110EAD37F4FF0804620EAE7
:101B7000D37018BF4FF0404691EAC47FDFF848E3C6
:101B800016D412EA0E0F18BF3EEA010E10D070BD37
:101B9000E50754BF1EF4000F1EF4800F0ABF4FF07C
:101BA00080464FF0404610F1010041F10001E3E7AB
:101BB000B4F1806FDEBF01F1C04101F000410020AF
:101BC00000DC70BDA8BFA1F1C04146F0140CA8BF55
:101BD0004CF0805CBDE870406FF0000041EA5001BD
:101BE00081EA10314FF00000704711EA0C1F00D05D
:101BF0000AE013EA0C1F00F03D804FF0000081EA7C
:101C0000030101F0004170BD6FF0000081EA0301A3
:101C100041EA500181EA10314FF0000070BD4FEAF7
:101C2000410EBEEB4C1F4FEA430508BF002898BF8A
:101C3000B5EB4C1F08BF002ABDE87040DFF88CC22E
:101C40003FF638AFAFF300804FF4001C1CEB410FA0
:101C500009D11CEB430F0FD04B4021F0004148BF8E
:101C600041F0004170474FF0000081EA030303F0A8
:101C700000417047BDE870404FF000009449704744
:101C8000E0B5054610B40C460FF238114FEA430C8C
:101C90004FF0010E4FEA9C6C51F82CC04FF0000140
:101CA000ACFB02604FF00006ECFB0301001841EBB7
:101CB0000101301A66EB0101E1FB0C6C4FF00001F1
:101CC000ACFB02604FF00006ECFB0301001841EB97
:101CD0000101301A66EB0101E1FB0C6C4FF00001D1
:101CE000ACFB0560ECFB0401A2FB0167E3FB006EAB
:101CF00017EB0E074FF0000EE3FB017E4EF1000ED6
:101D0000B6197F414EEB0E0E764275EB070764EB7A
:101D10000E0EECFB0E01ACFB07E64FF0000E801937
:101D200041F10001A2FB0067B619E2FB017EE3FB73
:101D3000007E7F4103FB01EE4EEB0E0E76424FF02C
:101D4000000676EB070765EB0E0EACFB0E674FF057
:101D5000000E4FEA857C4FEA9505C01941F100015C
:101D600045EA847549084FEA3000A2FB00677642D5
:101D7000E2FB017EE3FB007E7CEB070703FB01EE49
:101D800065EB0E0EB51A77EB03047EF1000E24BF4F
:101D90002E46274650F1000041F10001012E38BFC8
:101DA000012F404141EB010111F0004F18BF022308
:101DB00001D0F0BC00BDF0BC4FF00103001841EBB6
:101DC000010100BDFCC00FFC830F3EF85F8D89F45C
:101DD000F0F0F0F0B50373EDEAA00EEA48B4C2E605
:101DE000E3388EE31C3870E0A6C867DDA70D74DA0F
:101DF000E53594D7037BC7D4D2200DD2A87464CF25
:101E0000CCCCCCCCE68745CA7C0CCEC77BC865C59C
:101E1000C3300CC3C0C0C0C00BFA82BE0B6452BC3E
:101E2000A28B2EBAE00217B8B6600BB6B4400BB462
:101E3000C84216B2020B2CB05C414CAE849176AC19
:101E4000AAAAAAAA573FE8A839052FA702B57EA5D6
:101E50003D0AD7A32BC337A2A0A0A0A0E765119F7E
:101E60009DD8899D9CC0099CD9E7909A511A1F99C9
:101E7000ED25B4976CDA4F964F09F294C4859A9386
:101E80009224499209BCFD90EE23B88F6D35788E6F
:101E900008CB3D8D8CC0088CFBF2D88A8940AE8976
:101EA000888888885FAB67877D8A4B86530834852E
:101EB00042082184976E12838220088208040281DE
:101EC000000000800000FF070000F07F1400000405
:101ED0000000F87F4FEAC12303B40A1543EA5053C8
:101EE00018BF43F000430DD4A2F56072D2F19E02F8
:101EF00040F32180FF2ACCBF002123FA02F10846DB
:101F000002B070474FEA4252520D08BF23F000431F
:101F10004FF00001A2F56072D2F19E020BDBFF2AA6
:101F2000DCBF23FA02FCA1EB0C010029DEBF02B0EA
:101F300008467047FFE703BCDFF830C0012841EBDB
:101F4000010313F5001F88BF4CF4803C3FF6BAAD87
:101F50003EBF6FEAE17080F000407047AFF3008051
:101F60006FEAE17080F0004070470000C800020492
:101F700010F0004314BF4142014643F08043B1FAE0
:101F800081FC03F1F87311FA0CF1A3EB0C534FEA47
:101F9000415008BF704703EBE1217047094248BF39
:101FA0004CF4803C4FF4C0634FEA115203F101033B
:101FB00021EA025122F400629A1A48BF6FF0FE0231
:101FC00041F48011352A3CD830D0152A1ED3203A4E
:101FD0000CD90028C2F1200321FA02F001FA03F221
:101FE00018BF42F001024FF0000130E0C2F10003DF
:101FF00002F1200201FA03F120FA02F241EA0201A1
:1020000000FA03F208464FF0000120E0C2F120037D
:1020100010B400FA03F401FA03F320FA02F021FAF3
:1020200002F1224610BC43EA000010E050EA0132FF
:102030004FF000004FF000014FF0004218BF521C5B
:1020400005E04FF001024FF000014FF000001CF4DA
:10205000803F2CF4803C18BF41F00041124208BF81
:102060007047520003D303D0401C41F10001704778
:102070005FEAAC72F8D4FAD1401C41F1000120F0C3
:102080000100F4E7704770470CF00F03092B08BFFD
:10209000082000F02B800A2B0BD0082B18BF7047AC
:1020A00008BF1CF0400F0AD04FF000004FF00001B5
:1020B00070471CF0400F18BF4FF0004070471CF0F5
:1020C000100F08D020F0704300F07F4242EAD301A5
:1020D0004FEA4370704700F0604021F07F4242EACF
:1020E000000201F07F4040EA727070471CF4801FCC
:1020F00011D01CF4E02F03D06FEACC3149007047B7
:102100004FF04050EFF3008222F0704242EA0002AA
:1021100082F3008870474FF0000070473C210008B0
:1021200000000020280000006C0100086421000865
:102130002800002070060000880100080000000050
:10214000000000000000000000000000000000008F
:10215000000000000102030401020304060708094D
:042160000204060867
:0400000508000131BD
:00000001FF
